:040000008A11EE2F44
:100AC4000134003464008001840A040603190034EC
:100AD4000406652D8312031306171030F000F00B83
:100AE400712D0000831203130613080083120313ED
:100AF40006111030F000F00B7D2D0000831203135B
:100B040006150800F301F401902D882D892D0000AD
:100B14000130F3070318F40A0030F4077408803A2C
:100B2400F2007108803A7202031D9A2D7008730254
:100B3400031C9D2D9E2D872D0800F401F501701CCA
:100B4400A42DA52DAB2D7208F4070318F50A73081C
:100B5400F50701300310F20DF30DFF3E031DAC2D1C
:100B640001300310F10CF00CFF3E031DB32D70088F
:100B74007104031DBE2DBF2DA12D7508F10074084D
:100B8400F0000800031083120313061C0314031857
:100B9400CC2DD02D831203130614D32D83120313EB
:100BA40006100230F2004530F100A930F000F00BDD
:100BB400D92DF10BD92DF20BD92DE02D0310831271
:100BC4000313061C03140318E82DEC2D83120313DE
:100BD4000614EF2D83120313061008008312031367
:100BE400DE01DF01831203135E08DA005A07590796
:100BF400DB005B08840083130008DC00840A00081F
:100C0400DD005C035D04031D082E092E112EF43053
:100C1400D0000130D1008A112A268A11142E8A119B
:100C2400C4258A11013083120313DE070318DF0A77
:100C34000030DF075F08803AFF0080307F02031D29
:100C4400252E07305E02031C282E292EF42D0800C1
:100C5400533083120313D7000030D800A630F600B7
:100C64000030F7005108F1005008F000E830F200BD
:100C74000330F3008A119F258A117108F900700866
:100C8400F8008A11D2268A11770883120313D4003C
:100C94007608D300D501D6016B2E83120313861474
:100CA4005808F1005708F0008A1184258A1183122C
:100CB400031386105808F1005708F0008A118425A0
:100CC4008A11013083120313D5070318D60A0030A2
:100CD400D6075608803AD2005408803A5202031DBF
:100CE400752E53085502031C782E792E4F2E0800BA
:100CF4000730831203139F00831603130610851114
:100D04000611861085140515861306138312031322
:100D14008515F101F20171087204031D922E932EC0
:100D2400A92E7108F00070072E3E84000130831351
:100D34008000840A003080007108F0007007203EB3
:100D4400840001308000840A00308000BC2E7108C9
:100D5400F00070072E3E8400013083138000840A63
:100D6400003080007108F0007007203E840080018C
:100D7400840A80010130F1070318F20A0030F207F7
:100D84007208803AFF0080307F02031DCB2E0730AB
:100D94007102031CCE2ECF2E8D2E8B170B1708003D
:100DA400FB01F71FD62ED72EDE2EF609F709F60A19
:100DB4000319F70A0130FB00F91FE12EE22EE92E98
:100DC400F809F909F80A0319F90A0130FB06FC01CC
:100DD400FD01760877040319F02EF12E262F013039
:100DE400FA00FD2E01300310F60DF70DFF3E031D32
:100DF400F52E0130FA07F71F002F012FF42E0130D2
:100E04000310FC0DFD0DFF3E031D022F7708790230
:100E1400031D0E2F76087802031C112F122F192F91
:100E24007608F8027708031CF903F9027C140130F0
:100E34000310F70CF60CFF3E031D1A2F0130FA02C3
:100E4400031D252F262F012F7B0803192A2F2B2F53
:100E5400302FFC09FD09FC0A0319FD0A7D08F7007F
:100E64007C08F60008008A117A268A11831203137B
:100E740006150610EA01EB01E601E70106178312E5
:100E840003130519462F472F5D2FE830D000033098
:100E9400D1008A112A268A11023083120313E20038
:100EA4004530E100A930E000E00B562FE10B562F4E
:100EB400E20B562F0000831203138613E401E501AD
:100EC4006E2F8A116C258A11013083120313E407F3
:100ED4000318E50A0030E5070830E0006A086002FC
:100EE400E1006B090318013EE2006508803AE30063
:100EF4006208803A6302031D812F61086402031CA7
:100F0400842F852F632F8312031386178A116C2570
:100F14008A118312031386130730E0006A08600203
:100F2400E8006B090318013EE9006908803AFF00F4
:100F340080307F02031DA02F08306802031CA32FFA
:100F4400A42FA52FB12F8A116C258A110130831289
:100F54000313E8070318E90A0030E907972F8312FF
:100F6400031386178A1178258A1183120313050C3B
:100F74000139E000E1016A08E2006207403E8400B2
:100F8400600883138000840A610880000130EA0746
:100F94000318EB0A0030EB0708306A066B04031DE4
:100FA400D42FD52F412FEA01EB010130E6070318B6
:100FB400E70A0030E707023066066704031DE32FE3
:100FC400E42F412FE601E7014030D9008A11F025D2
:100FD4008A11412F8A1100288A1162258A11EC0096
:100FE4008A1163258A11ED00831320308400503068
:0C0FF4008A1164258A1183018A11352FAF
:02400E00223F4F
:00000001FF
