:040000008A11EE2F44
:100A50000134003464008001840A04060319003460
:100A600004062B2D7008840083130008F200840A0A
:100A70000008F30072037304031D3F2D402D452D24
:100A80000130F0000030F100472DF001F1010800C5
:100A9000F301F401542D4C2D4D2D00000130F307CE
:100AA0000318F40A0030F4077408803AF200710861
:100AB000803A7202031D5E2D70087302031C612DC3
:100AC000622D4B2D0800F401F501701C682D692D75
:100AD0006F2D7208F4070318F50A7308F507013043
:100AE0000310F20DF30DFF3E031D702D01300310B6
:100AF000F10CF00CFF3E031D772D70087104031DEF
:100B0000822D832D652D7508F1007408F000080012
:100B1000533083120313D5000030D600A630F60000
:100B20000030F7004F08F1004E08F000E830F20006
:100B30000330F3008A1163258A117108F9007008E7
:100B4000F8008A1187268A11770883120313D200CE
:100B50007608D100D301D401C92D83120313861462
:100B60005608F1005508F0008A1148258A118312B1
:100B7000031386105608F1005508F0008A11482525
:100B80008A11013083120313D3070318D40A0030EB
:100B9000D4075408803AD0005208803A5002031D0E
:100BA000D32D51085302031CD62DD72DAD2D08008F
:100BB000F501F31FDC2DDD2DE42DF209F309F20A16
:100BC0000319F30A0130F500F11FE72DE82DED2D93
:100BD000F009F109F00A0319F10A70087104031908
:100BE000F22DF32D202E0130F400FF2D01300310E3
:100BF000F00DF10DFF3E031DF72D0130F407F11F3D
:100C0000022E032EF62D71087302031D092E7008A3
:100C10007202031C0C2E0D2E132E7008F2027108A6
:100C2000031CF303F30201300310F10CF00CFF3E40
:100C3000031D142E0130F402031D1F2E202E032E3F
:100C400075080319242E252E2A2EF209F309F20A1B
:100C50000319F30A7308F1007208F0000800073066
:100C6000831203139F0083160313061085110611C8
:100C70008610851405158613061383120313851534
:100C8000F101F20171087204031D472E482E5E2EF9
:100C90007108F0007007403E84000130831380002B
:100CA000840A003080007108F00070072E3E840036
:100CB00001308000840A00308000712E7108F0003D
:100CC0007007403E8400013083138000840A0030A6
:100CD00080007108F00070072E3E84008001840AB5
:100CE00080010130F1070318F20A0030F2077208A0
:100CF000803AFF0080307F02031D802E0730710292
:100D0000031C832E842E422E8B170B170800FB0129
:100D1000F71F8B2E8C2E932EF609F709F60A03196E
:100D2000F70A0130FB00F91F962E972E9E2EF80928
:100D3000F909F80A0319F90A0130FB06FC01FD0163
:100D4000760877040319A52EA62EDB2E0130FA00B3
:100D5000B22E01300310F60DF70DFF3E031DAA2E33
:100D60000130FA07F71FB52EB62EA92E0130031059
:100D7000FC0DFD0DFF3E031DB72E77087902031D04
:100D8000C32E76087802031CC62EC72ECE2E7608F8
:100D9000F8027708031CF903F9027C1401300310F0
:100DA000F70CF60CFF3E031DCF2E0130FA02031D97
:100DB000DA2EDB2EB62E7B080319DF2EE02EE52E71
:100DC000FC09FD09FC0A0319FD0A7D08F7007C08EF
:100DD000F6000800FF3083120313D000FF30D1006B
:100DE000D201D3011D2F831203135208F900790792
:100DF0007607FA007A08840083130008FB00840A4F
:100E00000008FC007B037C04031D072F082F172F0D
:100E10005308D1005208D0005208F900790776072C
:100E2000FA007A0884008001840A80012B2F0130A7
:100E3000D2070318D30A0030D3075308803AF900C9
:100E40007808803A7902031D272F77085202031C85
:100E50002A2F2B2FF32E7808F1007708F000831249
:100E600003135008013EF20051080318013E003EF2
:100E7000F3008A11D8258A11710883120313CF0059
:100E80007008CE004E08F90079077607FA007A0854
:100E90008400013083138000840A00308000080041
:100EA0008A112F268A11413083120313D800EE30A5
:100EB000D700D70B592FD80B592F831203130615C0
:100EC00006100519642F652F7B2FE830CE00033004
:100ED000CF008A1188258A11023083120313D900AA
:100EE0004530D800A930D700D70B742FD80B742FFA
:100EF000D90B742F00008312031306173D08803AA4
:100F0000FF0080307F02031D872F07303C0203184B
:100F10008A2F8B2FD42F831203133F08803AFF00B0
:100F200080307F02031D962F07303E020318992F51
:100F30009A2FAE2F831203133E08D70057072E3E79
:100F400084008313000C031C8613031886170130DA
:100F5000BE070318BF0A0030BF07E12F8312031337
:100F6000050C0139D700D8013C08D9005907403E8B
:100F70008400570883138000840A58088000BE014B
:100F8000BF014030F6000730F7000030F8008A114A
:100F9000EA268A11013083120313BC070318BD0A25
:100FA0000030BD078613E12F4030F0008A11322552
:100FB0008A11710883120313DB007008DA00BC0188
:100FC000BD0106135A035B04031DE72FE82FEA2F28
:100FD0000610612F0614612F8A1100288A11282516
:100FE0008A11DA008A1129258A11DB008313203047
:100FF00084004E308A112A258A1183018A11502FCC
:02400E00223F4F
:00000001FF
