:040000008A11FB2F37
:100F500083160313061085150615861005108514D3
:100F6000051508008A11A8278A1183120313061099
:100F700083120313051DBD2FBE2FCB2F0230F200AD
:100F80004530F100A930F000F00BC42FF10BC42F55
:100F9000F20BC42FCB2F831203130519D02FD12F9F
:100FA000EB2F0310061C03140318D72FDB2F83121B
:100FB00003130614DE2F8312031306100230F2000F
:100FC0004530F100A930F000F00BE42FF10BE42FD5
:100FD000F20BE42FEB2F0230F2004530F100A93084
:100FE000F000F00BF12FF10BF12FF20BF12FF82F96
:100FF000B82F8A110028F301F40183018A11B22F5E
:02400E00223F4F
:00000001FF
