:040000008A11EE2F44
:100AC0000134003464008001840A040603190034F0
:100AD0000406632D8312031306171030F000F00B89
:100AE0006F2D0000831203130613080083120313F3
:100AF00006111030F000F00B7B2D00008312031361
:100B000006150800F301F4018E2D862D872D0000B7
:100B10000130F3070318F40A0030F4077408803A30
:100B2000F2007108803A7202031D982D700873025A
:100B3000031C9B2D9C2D852D0800F401F501701CD4
:100B4000A22DA32DA92D7208F4070318F50A730826
:100B5000F50701300310F20DF30DFF3E031DAA2D22
:100B600001300310F10CF00CFF3E031DB12D700895
:100B70007104031DBC2DBD2D9F2D7508F100740857
:100B8000F0000800031083120313061C031403185B
:100B9000CA2DCE2D831203130614D12D83120313F5
:100BA00006100230F2004530F100A930F000F00BE1
:100BB000D72DF10BD72DF20BD72DDE2D031083127D
:100BC0000313061C03140318E62DEA2D83120313E6
:100BD0000614ED2D8312031306100800831203136D
:100BE000DE01DF01831203135E08DA005A0759079A
:100BF000DB005B08840083130008DC00840A000823
:100C0000DD005C035D04031D062E072E0F2EF4305D
:100C1000D0000130D1008A1128268A11122E8A11A3
:100C2000C2258A11013083120313DE070318DF0A7D
:100C30000030DF075F08803AFF0080307F02031D2D
:100C4000232E07305E02031C262E272EF22D0800CD
:100C5000533083120313D7000030D800A630F600BB
:100C60000030F7005108F1005008F000E830F200C1
:100C70000330F3008A119D258A117108F90070086C
:100C8000F8008A11D0268A11770883120313D40042
:100C90007608D300D501D601692E8312031386147A
:100CA0005808F1005708F0008A1182258A11831232
:100CB000031386105808F1005708F0008A118225A6
:100CC0008A11013083120313D5070318D60A0030A6
:100CD000D6075608803AD2005408803A5202031DC3
:100CE000732E53085502031C762E772E4D2E0800C6
:100CF0000730831203139F00831603130610851118
:100D00000611861085140515861306138312031326
:100D10008515F101F20171087204031D902E912EC8
:100D2000A72E7108F00070072E3E84000130831357
:100D30008000840A003080007108F0007007203EB7
:100D4000840001308000840A00308000BA2E7108CF
:100D5000F00070072E3E8400013083138000840A67
:100D6000003080007108F0007007203E8400800190
:100D7000840A80010130F1070318F20A0030F207FB
:100D80007208803AFF0080307F02031DC92E0730B1
:100D90007102031CCC2ECD2E8B2E8B170B17080047
:100DA000FB01F71FD42ED52EDC2EF609F709F60A23
:100DB0000319F70A0130FB00F91FDF2EE02EE72EA2
:100DC000F809F909F80A0319F90A0130FB06FC01D0
:100DD000FD01760877040319EE2EEF2E242F013043
:100DE000FA00FB2E01300310F60DF70DFF3E031D38
:100DF000F32E0130FA07F71FFE2EFF2EF22E0130E0
:100E00000310FC0DFD0DFF3E031D002F7708790236
:100E1000031D0C2F76087802031C0F2F102F172F9D
:100E20007608F8027708031CF903F9027C140130F4
:100E30000310F70CF60CFF3E031D182F0130FA02C9
:100E4000031D232F242FFF2E7B080319282F292F62
:100E50002E2FFC09FD09FC0A0319FD0A7D08F70085
:100E60007C08F60008008A1178268A118312031381
:100E700006150610EA01EB01E601E70183120313F0
:100E80000519432F442F5A2FE830D0000330D100EA
:100E90008A1128268A11023083120313E20045309A
:100EA000E100A930E000E00B532FE10B532FE20BE0
:100EB000532F0000831203138613E401E5016B2F07
:100EC0008A116A258A11013083120313E40703187B
:100ED000E50A0030E5070830E0006A086002E1003A
:100EE0006B090318013EE2006508803AE3006208DE
:100EF000803A6302031D7E2F61086402031C812F68
:100F0000822F602F8312031386178A116A258A1194
:100F10008312031386130730E0006A086002E800BA
:100F20006B090318013EE9006908803AFF00803030
:100F30007F02031D9D2F08306802031CA02FA12FE4
:100F4000A22FAE2F8A116A258A1101308312031352
:100F5000E8070318E90A0030E907942F8312031306
:100F600086178A116A258A118A1176258A118312B9
:100F70000313050C0139E000E1016A08E200620791
:100F8000403E8400600883138000840A610880006A
:100F90000130EA070318EB0A0030EB0708306A0655
:100FA0006B04031DD42FD52F3E2FEA01EB01013036
:100FB000E6070318E70A0030E70702306606670411
:100FC000031DE32FE42F3E2FE601E7014030D90057
:100FD0008A11EE258A113E2F8A1100288A11602578
:100FE0008A11EC008A1161258A11ED0083132030EB
:100FF000840050308A1162258A1183018A11332FAF
:02400E00223F4F
:00000001FF
