:040000008A11F62F3C
:1009C20064008001840A0406031900340406E22C40
:1009D2008312031390103030900410158F018E0192
:1009E20010140800F101F2010130F1070318F20AB4
:1009F2000030F2077208803AFF0080307F02031D48
:100A0200042D07307102031C072D082DF52C080058
:100A1200F301F401152D0D2D0E2D00000130F30709
:100A22000318F40A0030F4077408803AF2007108DF
:100A3200803A7202031D1F2D70087302031C222DBF
:100A4200232D0C2D0800F401F501701C292D2A2DEF
:100A5200302D7208F4070318F50A7308F507013000
:100A62000310F20DF30DFF3E031D312D0130031073
:100A7200F10CF00CFF3E031D382D70087104031DAC
:100A8200432D442D262D7508F1007408F00008004E
:100A9200533083120313D7000030D800A630F6007B
:100AA2000030F7005108F1005008F000E830F20081
:100AB2000330F3008A1124258A117108F9007008A5
:100AC200F8008A1149268A11770883120313D40089
:100AD2007608D300D501D6018A2D8312031386141A
:100AE2005808F1005708F0008A1109258A1183126B
:100AF200031386105808F1005708F0008A110925DF
:100B02008A11013083120313D5070318D60A003065
:100B1200D6075608803AD2005408803A5202031D82
:100B2200942D53085502031C972D982D6E2D080005
:100B3200F501F31F9D2D9E2DA52DF209F309F20A51
:100B42000319F30A0130F500F11FA82DA92DAE2DCE
:100B5200F009F109F00A0319F10A70087104031986
:100B6200B32DB42DE12D0130F400C02D013003105E
:100B7200F00DF10DFF3E031DB82D0130F407F11FFA
:100B8200C32DC42DB72D71087302031DCA2D700821
:100B92007202031CCD2DCE2DD42D7008F2027108E5
:100BA200031CF303F30201300310F10CF00CFF3EBF
:100BB200031DD52D0130F402031DE02DE12DC42DBE
:100BC20075080319E52DE62DEB2DF209F309F20A5A
:100BD2000319F30A7308F1007208F00008000730E5
:100BE200831203139F00831603130610851506153F
:100BF2008610051085140515861306138312031338
:100C02008515F101F20171087204031D092E0A2EE5
:100C1200202E7108F0007007423E840001308313D9
:100C22008000840A003080007108F0007007343EB2
:100C3200840001308000840A00308000332E710865
:100C4200F0007007423E8400013083138000840A62
:100C5200003080007108F0007007343E840080018B
:100C6200840A80010130F1070318F20A0030F2070A
:100C72007208803AFF0080307F02031D422E073047
:100C82007102031C452E462E042E8B170B170800EB
:100C9200FB01F71F4D2E4E2E552EF609F709F60AC7
:100CA2000319F70A0130FB00F91F582E592E602E46
:100CB200F809F909F80A0319F90A0130FB06FC01DF
:100CC200FD01760877040319672E682E9D2E0130E8
:100CD200FA00742E01300310F60DF70DFF3E031DCE
:100CE2006C2E0130FA07F71F772E782E6B2E01300B
:100CF2000310FC0DFD0DFF3E031D792E77087902CE
:100D0200031D852E76087802031C882E892E902ECC
:100D12007608F8027708031CF903F9027C14013003
:100D22000310F70CF60CFF3E031D912E0130FA0260
:100D3200031D9C2E9D2E782E7B080319A12EA22E18
:100D4200A72EFC09FD09FC0A0319FD0A7D08F7001C
:100D52007C08F6000800FF3083120313D200FF3034
:100D6200D300D401D501DF2E831203135408F900F6
:100D720079077607FA007A08840083130008FB00DB
:100D8200840A0008FC007B037C04031DC92ECA2EC2
:100D9200D92E5508D3005408D2005408F900790717
:100DA2007607FA007A0884008001840A8001ED2E19
:100DB2000130D4070318D50A0030D5075508803A08
:100DC200F9007808803A7902031DE92E7708540267
:100DD200031CEC2EED2EB52E7808F1007708F000FA
:100DE200831203135208013EF20053080318013E16
:100DF200003EF3008A1199258A11710883120313A8
:100E0200D1007008D0005008F90079077607FA007F
:100E12007A088400013083138000840A0030800045
:100E220008008A11F0258A118A11E9248A11831295
:100E320003130610831203130519202F212F372FB6
:100E4200E830D0000330D1008A1149258A110230DE
:100E520083120313DB004530DA00A930D900D90B25
:100E6200302FDA0B302FDB0B302F000083120313ED
:100E72000617023083120313DB004530DA00A93073
:100E8200D900D90B422FDA0B422FDB0B422F000085
:100E9200831203133308803AFF0080307F02031D60
:100EA200542F0E3032020318572F582FCF2F831290
:100EB20003133308803AFF0080307F02031D632F43
:100EC200073032020318662F672FAC2F83120313E9
:100ED20006113208D9005907343E84008313000CEE
:100EE200031C8613031886170130B2070318B30ACE
:100EF2000030B3070608861F7F2F802FE12F0310D3
:100F0200061C03140318862F8A2F83120313061458
:100F12008D2F831203130610023083120313DB009A
:100F22004530DA00A930D900D90B952FDA0B952F6D
:100F3200DB0B952F0000031083120313061C03140E
:100F42000318A42FA82F831203130614AB2F8312A6
:100F520003130610E12F8312031306153208D9007A
:100F62005907263E84008313000C031C86130318C2
:100F72008617050C0139D900DA013208DB005B075C
:100F8200343E840059088000840A5A0880000130E7
:100F9200B2070318B30A0030B307E12F8312031319
:100FA200B201B3014230F0008A11F3248A113430C5
:100FB200F6000730F7000030F8008A11AC268A11DB
:100FC200831203130613023083120313DB0045302E
:100FD200DA00A930D900D90BEC2FDA0BEC2FDB0B9E
:100FE200EC2F00001B2F8A1100288313203084006D
:0E0FF20050308A11E1248A1183018A11122FD6
:02400E00223F4F
:00000001FF
