:040000008A110F282A
:10000800FE00030EF6000408F7000A08F8007F084F
:10001800F9008A111B288A111128831320308400C3
:100028003E308A1124218A1183018A111B298312E7
:1000380003130C1C20282128DD28851824282828AB
:100048008312031306142B28831203130610851436
:100058008A11E8208A11831203130C108E018F0174
:10006800050C0139F300F4013C08F5007507203E42
:100078008400730883138000840A740880000130A8
:10008800BC070318BD0A0030BD073D08803AFF00D1
:1000980080307F02031D52280C303C02031C552877
:1000A8005628DD2883120313BA01BB01FC01FD01A8
:1000B8007C0AFF007C08F3007307203E840083134A
:1000C8000008F400840A0008F5006D280310F40DF8
:1000D800F50DFF0B6A28740883120313BA04750818
:1000E800BB040130FC070318FD0A0030FD077D083A
:1000F800803AFF0080307F02031D84280C307C0288
:10010800031C872888285C28FA01FB017A08F30079
:100118007307203E840083130008F400840A000853
:10012800F50074037504031D9A289B28C62803103C
:1001380083120313061C03140318A328A728831289
:1001480003130614AA288312031306100830F500B7
:100158009D30F4000530F300F30BB028F40BB02801
:10016800F50BB028B728031083120313061C0314D9
:100178000318BF28C328831203130614C628831242
:10018800031306100130FA070318FB0A0030FB07B7
:100198007B08803AFF0080307F02031DD5280C3091
:1001A8007A02031CD828D9288A2883120313BC0191
:1001B800BD017908FF0078088A0077088400760E68
:1001C8008300FE0E7E0E090083120313861403308B
:1001D800F2008A30F1005530F000F00BF128F10BF5
:1001E800F128F20BF128F828831203138610033044
:1001F800F2008A30F1005530F000F00B0129F10BC4
:100208000129F20B0129082908000730831203137A
:100218009F00831603130610851506158610051012
:1002280085140515831203138515061508008A1110
:1002380009218A1183120313061021298A110F2814
:1002480064008001840A0406031900340406252981
:02400E00223F4F
:00000001FF
